{
  "contractName": "Voting",
  "abi": [
    {
      "inputs": [],
      "payable": false,
      "stateMutability": "nonpayable",
      "type": "constructor"
    },
    {
      "constant": true,
      "inputs": [
        {
          "internalType": "uint256",
          "name": "",
          "type": "uint256"
        }
      ],
      "name": "candidateDetails",
      "outputs": [
        {
          "internalType": "string",
          "name": "name",
          "type": "string"
        },
        {
          "internalType": "string",
          "name": "party",
          "type": "string"
        },
        {
          "internalType": "string",
          "name": "manifesto",
          "type": "string"
        },
        {
          "internalType": "string",
          "name": "imgHash",
          "type": "string"
        },
        {
          "internalType": "uint256",
          "name": "voteCount",
          "type": "uint256"
        },
        {
          "internalType": "uint256",
          "name": "constituency",
          "type": "uint256"
        },
        {
          "internalType": "uint256",
          "name": "candidateId",
          "type": "uint256"
        }
      ],
      "payable": false,
      "stateMutability": "view",
      "type": "function"
    },
    {
      "constant": true,
      "inputs": [
        {
          "internalType": "uint256",
          "name": "",
          "type": "uint256"
        }
      ],
      "name": "candidateList",
      "outputs": [
        {
          "internalType": "string",
          "name": "name",
          "type": "string"
        },
        {
          "internalType": "string",
          "name": "party",
          "type": "string"
        },
        {
          "internalType": "string",
          "name": "manifesto",
          "type": "string"
        },
        {
          "internalType": "string",
          "name": "imgHash",
          "type": "string"
        },
        {
          "internalType": "uint256",
          "name": "voteCount",
          "type": "uint256"
        },
        {
          "internalType": "uint256",
          "name": "constituency",
          "type": "uint256"
        },
        {
          "internalType": "uint256",
          "name": "candidateId",
          "type": "uint256"
        }
      ],
      "payable": false,
      "stateMutability": "view",
      "type": "function"
    },
    {
      "constant": true,
      "inputs": [],
      "name": "owner",
      "outputs": [
        {
          "internalType": "address",
          "name": "",
          "type": "address"
        }
      ],
      "payable": false,
      "stateMutability": "view",
      "type": "function"
    },
    {
      "constant": true,
      "inputs": [
        {
          "internalType": "address",
          "name": "",
          "type": "address"
        }
      ],
      "name": "voterDetails",
      "outputs": [
        {
          "internalType": "address",
          "name": "voterAddress",
          "type": "address"
        },
        {
          "internalType": "string",
          "name": "name",
          "type": "string"
        },
        {
          "internalType": "string",
          "name": "votingCardNumber",
          "type": "string"
        },
        {
          "internalType": "uint256",
          "name": "constituency",
          "type": "uint256"
        },
        {
          "internalType": "bool",
          "name": "hasVoted",
          "type": "bool"
        },
        {
          "internalType": "bool",
          "name": "hasVerified",
          "type": "bool"
        }
      ],
      "payable": false,
      "stateMutability": "view",
      "type": "function"
    },
    {
      "constant": true,
      "inputs": [
        {
          "internalType": "uint256",
          "name": "",
          "type": "uint256"
        }
      ],
      "name": "voterList",
      "outputs": [
        {
          "internalType": "address",
          "name": "voterAddress",
          "type": "address"
        },
        {
          "internalType": "string",
          "name": "name",
          "type": "string"
        },
        {
          "internalType": "string",
          "name": "votingCardNumber",
          "type": "string"
        },
        {
          "internalType": "uint256",
          "name": "constituency",
          "type": "uint256"
        },
        {
          "internalType": "bool",
          "name": "hasVoted",
          "type": "bool"
        },
        {
          "internalType": "bool",
          "name": "hasVerified",
          "type": "bool"
        }
      ],
      "payable": false,
      "stateMutability": "view",
      "type": "function"
    },
    {
      "constant": true,
      "inputs": [
        {
          "internalType": "uint256",
          "name": "",
          "type": "uint256"
        }
      ],
      "name": "voters",
      "outputs": [
        {
          "internalType": "address",
          "name": "",
          "type": "address"
        }
      ],
      "payable": false,
      "stateMutability": "view",
      "type": "function"
    },
    {
      "constant": true,
      "inputs": [],
      "name": "getOwner",
      "outputs": [
        {
          "internalType": "address",
          "name": "",
          "type": "address"
        }
      ],
      "payable": false,
      "stateMutability": "view",
      "type": "function"
    },
    {
      "constant": false,
      "inputs": [
        {
          "internalType": "string",
          "name": "_name",
          "type": "string"
        },
        {
          "internalType": "string",
          "name": "_party",
          "type": "string"
        },
        {
          "internalType": "string",
          "name": "_manifesto",
          "type": "string"
        },
        {
          "internalType": "uint256",
          "name": "_constituency",
          "type": "uint256"
        },
        {
          "internalType": "string",
          "name": "_imgHash",
          "type": "string"
        }
      ],
      "name": "addCandidate",
      "outputs": [],
      "payable": false,
      "stateMutability": "nonpayable",
      "type": "function"
    },
    {
      "constant": true,
      "inputs": [],
      "name": "getCandidateNumber",
      "outputs": [
        {
          "internalType": "uint256",
          "name": "",
          "type": "uint256"
        }
      ],
      "payable": false,
      "stateMutability": "view",
      "type": "function"
    },
    {
      "constant": true,
      "inputs": [],
      "name": "getCandidateList",
      "outputs": [
        {
          "components": [
            {
              "internalType": "string",
              "name": "name",
              "type": "string"
            },
            {
              "internalType": "string",
              "name": "party",
              "type": "string"
            },
            {
              "internalType": "string",
              "name": "manifesto",
              "type": "string"
            },
            {
              "internalType": "string",
              "name": "imgHash",
              "type": "string"
            },
            {
              "internalType": "uint256",
              "name": "voteCount",
              "type": "uint256"
            },
            {
              "internalType": "uint256",
              "name": "constituency",
              "type": "uint256"
            },
            {
              "internalType": "uint256",
              "name": "candidateId",
              "type": "uint256"
            }
          ],
          "internalType": "struct Voting.Candidate[]",
          "name": "",
          "type": "tuple[]"
        }
      ],
      "payable": false,
      "stateMutability": "view",
      "type": "function"
    },
    {
      "constant": false,
      "inputs": [
        {
          "internalType": "string",
          "name": "_name",
          "type": "string"
        },
        {
          "internalType": "string",
          "name": "_votingCardNumber",
          "type": "string"
        },
        {
          "internalType": "uint256",
          "name": "_constituency",
          "type": "uint256"
        }
      ],
      "name": "requestVoter",
      "outputs": [],
      "payable": false,
      "stateMutability": "nonpayable",
      "type": "function"
    },
    {
      "constant": true,
      "inputs": [],
      "name": "getVoterList",
      "outputs": [
        {
          "components": [
            {
              "internalType": "address",
              "name": "voterAddress",
              "type": "address"
            },
            {
              "internalType": "string",
              "name": "name",
              "type": "string"
            },
            {
              "internalType": "string",
              "name": "votingCardNumber",
              "type": "string"
            },
            {
              "internalType": "uint256",
              "name": "constituency",
              "type": "uint256"
            },
            {
              "internalType": "bool",
              "name": "hasVoted",
              "type": "bool"
            },
            {
              "internalType": "bool",
              "name": "hasVerified",
              "type": "bool"
            }
          ],
          "internalType": "struct Voting.Voter[]",
          "name": "",
          "type": "tuple[]"
        }
      ],
      "payable": false,
      "stateMutability": "view",
      "type": "function"
    },
    {
      "constant": true,
      "inputs": [],
      "name": "getVoterCount",
      "outputs": [
        {
          "internalType": "uint256",
          "name": "",
          "type": "uint256"
        }
      ],
      "payable": false,
      "stateMutability": "view",
      "type": "function"
    },
    {
      "constant": true,
      "inputs": [
        {
          "internalType": "address",
          "name": "_address",
          "type": "address"
        }
      ],
      "name": "getvoter",
      "outputs": [
        {
          "components": [
            {
              "internalType": "address",
              "name": "voterAddress",
              "type": "address"
            },
            {
              "internalType": "string",
              "name": "name",
              "type": "string"
            },
            {
              "internalType": "string",
              "name": "votingCardNumber",
              "type": "string"
            },
            {
              "internalType": "uint256",
              "name": "constituency",
              "type": "uint256"
            },
            {
              "internalType": "bool",
              "name": "hasVoted",
              "type": "bool"
            },
            {
              "internalType": "bool",
              "name": "hasVerified",
              "type": "bool"
            }
          ],
          "internalType": "struct Voting.Voter",
          "name": "",
          "type": "tuple"
        }
      ],
      "payable": false,
      "stateMutability": "view",
      "type": "function"
    },
    {
      "constant": false,
      "inputs": [
        {
          "internalType": "address",
          "name": "_address",
          "type": "address"
        }
      ],
      "name": "verifyVoter",
      "outputs": [],
      "payable": false,
      "stateMutability": "nonpayable",
      "type": "function"
    },
    {
      "constant": false,
      "inputs": [
        {
          "internalType": "uint256",
          "name": "_candidateId",
          "type": "uint256"
        }
      ],
      "name": "Vote",
      "outputs": [],
      "payable": false,
      "stateMutability": "nonpayable",
      "type": "function"
    },
    {
      "constant": false,
      "inputs": [],
      "name": "startElection",
      "outputs": [],
      "payable": false,
      "stateMutability": "nonpayable",
      "type": "function"
    },
    {
      "constant": false,
      "inputs": [],
      "name": "endElection",
      "outputs": [],
      "payable": false,
      "stateMutability": "nonpayable",
      "type": "function"
    },
    {
      "constant": true,
      "inputs": [],
      "name": "getStart",
      "outputs": [
        {
          "internalType": "bool",
          "name": "",
          "type": "bool"
        }
      ],
      "payable": false,
      "stateMutability": "view",
      "type": "function"
    },
    {
      "constant": true,
      "inputs": [],
      "name": "getEnd",
      "outputs": [
        {
          "internalType": "bool",
          "name": "",
          "type": "bool"
        }
      ],
      "payable": false,
      "stateMutability": "view",
      "type": "function"
    },
    {
      "constant": true,
      "inputs": [],
      "name": "getResultDeclared",
      "outputs": [
        {
          "internalType": "bool",
          "name": "",
          "type": "bool"
        }
      ],
      "payable": false,
      "stateMutability": "view",
      "type": "function"
    },
    {
      "constant": false,
      "inputs": [],
      "name": "setResultDeclared",
      "outputs": [],
      "payable": false,
      "stateMutability": "nonpayable",
      "type": "function"
    }
  ],
  "bytecode": "0x608060405234801561001057600080fd5b50336000806101000a81548173ffffffffffffffffffffffffffffffffffffffff021916908373ffffffffffffffffffffffffffffffffffffffff160217905550600060018190555060006002819055506000600360006101000a81548160ff0219169083151502179055506000600360016101000a81548160ff0219169083151502179055506000600360026101000a81548160ff021916908315150217905550612b1c806100c16000396000f3fe608060405234801561001057600080fd5b50600436106101425760003560e01c8063893d20e8116100b8578063b28d92ae1161007c578063b28d92ae14610357578063c5292c6714610375578063d59f9bcf14610393578063da58c7d9146103af578063dcd6a5cd146103df578063fdbc4006146103fb57610142565b8063893d20e8146102bd5780638da5cb5b146102db578063948d19ff146102f95780639f05a36d14610303578063b13c744b1461032157610142565b80635938750d1161010a5780635938750d146101f257806359f78468146102275780636247e5321461023157806362d73eb8146102675780637436f306146102715780637d9cf196146102a157610142565b806309bd09501461014757806311174a29146101635780632748a40014610181578063364dff251461019f57806350e2e8af146101bd575b600080fd5b610161600480360361015c9190810190612210565b610419565b005b61016b6106c1565b60405161017891906128fd565b60405180910390f35b6101896106cb565b6040516101969190612835565b60405180910390f35b6101a76106e2565b6040516101b491906128fd565b60405180910390f35b6101d760048036036101d2919081019061238f565b6106ec565b6040516101e996959493929190612782565b60405180910390f35b61020c60048036036102079190810190612210565b61089f565b60405161021e96959493929190612782565b60405180910390f35b61022f610a45565b005b61024b6004803603610246919081019061238f565b610ad6565b60405161025e9796959493929190612850565b60405180910390f35b61026f610d78565b005b61028b60048036036102869190810190612210565b610e09565b60405161029891906128db565b60405180910390f35b6102bb60048036036102b69190810190612310565b61103c565b005b6102c561131c565b6040516102d29190612767565b60405180910390f35b6102e3611345565b6040516102f09190612767565b60405180910390f35b61030161136a565b005b61030b6113e0565b6040516103189190612835565b60405180910390f35b61033b6004803603610336919081019061238f565b6113f7565b60405161034e9796959493929190612850565b60405180910390f35b61035f6116a6565b60405161036c9190612813565b60405180910390f35b61037d6118df565b60405161038a9190612835565b60405180910390f35b6103ad60048036036103a89190810190612239565b6118f6565b005b6103c960048036036103c4919081019061238f565b611b15565b6040516103d69190612767565b60405180910390f35b6103f960048036036103f4919081019061238f565b611b51565b005b610403611cd4565b60405161041091906127f1565b60405180910390f35b6000809054906101000a900473ffffffffffffffffffffffffffffffffffffffff1673ffffffffffffffffffffffffffffffffffffffff163373ffffffffffffffffffffffffffffffffffffffff161461047257600080fd5b6001600760008373ffffffffffffffffffffffffffffffffffffffff1673ffffffffffffffffffffffffffffffffffffffff16815260200190815260200160002060040160016101000a81548160ff02191690831515021790555060008090505b6008805490508110156106bd576000600882815481106104ef57fe5b906000526020600020906005020190508273ffffffffffffffffffffffffffffffffffffffff168160000160009054906101000a900473ffffffffffffffffffffffffffffffffffffffff1673ffffffffffffffffffffffffffffffffffffffff1614156106af5760018160040160016101000a81548160ff021916908315150217905550806008838154811061058257fe5b90600052602060002090600502016000820160009054906101000a900473ffffffffffffffffffffffffffffffffffffffff168160000160006101000a81548173ffffffffffffffffffffffffffffffffffffffff021916908373ffffffffffffffffffffffffffffffffffffffff1602179055506001820181600101908054600181600116156101000203166002900461061e929190611fd9565b5060028201816002019080546001816001161561010002031660029004610646929190611fd9565b50600382015481600301556004820160009054906101000a900460ff168160040160006101000a81548160ff0219169083151502179055506004820160019054906101000a900460ff168160040160016101000a81548160ff0219169083151502179055509050505b5080806001019150506104d3565b5050565b6000600254905090565b6000600360029054906101000a900460ff16905090565b6000600154905090565b600881815481106106f957fe5b90600052602060002090600502016000915090508060000160009054906101000a900473ffffffffffffffffffffffffffffffffffffffff1690806001018054600181600116156101000203166002900480601f0160208091040260200160405190810160405280929190818152602001828054600181600116156101000203166002900480156107cb5780601f106107a0576101008083540402835291602001916107cb565b820191906000526020600020905b8154815290600101906020018083116107ae57829003601f168201915b505050505090806002018054600181600116156101000203166002900480601f0160208091040260200160405190810160405280929190818152602001828054600181600116156101000203166002900480156108695780601f1061083e57610100808354040283529160200191610869565b820191906000526020600020905b81548152906001019060200180831161084c57829003601f168201915b5050505050908060030154908060040160009054906101000a900460ff16908060040160019054906101000a900460ff16905086565b60076020528060005260406000206000915090508060000160009054906101000a900473ffffffffffffffffffffffffffffffffffffffff1690806001018054600181600116156101000203166002900480601f0160208091040260200160405190810160405280929190818152602001828054600181600116156101000203166002900480156109715780601f1061094657610100808354040283529160200191610971565b820191906000526020600020905b81548152906001019060200180831161095457829003601f168201915b505050505090806002018054600181600116156101000203166002900480601f016020809104026020016040519081016040528092919081815260200182805460018160011615610100020316600290048015610a0f5780601f106109e457610100808354040283529160200191610a0f565b820191906000526020600020905b8154815290600101906020018083116109f257829003601f168201915b5050505050908060030154908060040160009054906101000a900460ff16908060040160019054906101000a900460ff16905086565b6000809054906101000a900473ffffffffffffffffffffffffffffffffffffffff1673ffffffffffffffffffffffffffffffffffffffff163373ffffffffffffffffffffffffffffffffffffffff1614610a9e57600080fd5b6000600360006101000a81548160ff0219169083151502179055506001600360016101000a81548160ff021916908315150217905550565b6004602052806000526040600020600091509050806000018054600181600116156101000203166002900480601f016020809104026020016040519081016040528092919081815260200182805460018160011615610100020316600290048015610b825780601f10610b5757610100808354040283529160200191610b82565b820191906000526020600020905b815481529060010190602001808311610b6557829003601f168201915b505050505090806001018054600181600116156101000203166002900480601f016020809104026020016040519081016040528092919081815260200182805460018160011615610100020316600290048015610c205780601f10610bf557610100808354040283529160200191610c20565b820191906000526020600020905b815481529060010190602001808311610c0357829003601f168201915b505050505090806002018054600181600116156101000203166002900480601f016020809104026020016040519081016040528092919081815260200182805460018160011615610100020316600290048015610cbe5780601f10610c9357610100808354040283529160200191610cbe565b820191906000526020600020905b815481529060010190602001808311610ca157829003601f168201915b505050505090806003018054600181600116156101000203166002900480601f016020809104026020016040519081016040528092919081815260200182805460018160011615610100020316600290048015610d5c5780601f10610d3157610100808354040283529160200191610d5c565b820191906000526020600020905b815481529060010190602001808311610d3f57829003601f168201915b5050505050908060040154908060050154908060060154905087565b6000809054906101000a900473ffffffffffffffffffffffffffffffffffffffff1673ffffffffffffffffffffffffffffffffffffffff163373ffffffffffffffffffffffffffffffffffffffff1614610dd157600080fd5b6001600360006101000a81548160ff0219169083151502179055506000600360016101000a81548160ff021916908315150217905550565b610e11612060565b600760008373ffffffffffffffffffffffffffffffffffffffff1673ffffffffffffffffffffffffffffffffffffffff1681526020019081526020016000206040518060c00160405290816000820160009054906101000a900473ffffffffffffffffffffffffffffffffffffffff1673ffffffffffffffffffffffffffffffffffffffff1673ffffffffffffffffffffffffffffffffffffffff168152602001600182018054600181600116156101000203166002900480601f016020809104026020016040519081016040528092919081815260200182805460018160011615610100020316600290048015610f4a5780601f10610f1f57610100808354040283529160200191610f4a565b820191906000526020600020905b815481529060010190602001808311610f2d57829003601f168201915b50505050508152602001600282018054600181600116156101000203166002900480601f016020809104026020016040519081016040528092919081815260200182805460018160011615610100020316600290048015610fec5780601f10610fc157610100808354040283529160200191610fec565b820191906000526020600020905b815481529060010190602001808311610fcf57829003601f168201915b50505050508152602001600382015481526020016004820160009054906101000a900460ff161515151581526020016004820160019054906101000a900460ff1615151515815250509050919050565b6000339050611049612060565b6040518060c001604052808373ffffffffffffffffffffffffffffffffffffffff16815260200186815260200185815260200184815260200160001515815260200160001515815250905080600760003373ffffffffffffffffffffffffffffffffffffffff1673ffffffffffffffffffffffffffffffffffffffff16815260200190815260200160002060008201518160000160006101000a81548173ffffffffffffffffffffffffffffffffffffffff021916908373ffffffffffffffffffffffffffffffffffffffff16021790555060208201518160010190805190602001906111379291906120b0565b5060408201518160020190805190602001906111549291906120b0565b506060820151816003015560808201518160040160006101000a81548160ff02191690831515021790555060a08201518160040160016101000a81548160ff0219169083151502179055509050506008819080600181540180825580915050906001820390600052602060002090600502016000909192909190915060008201518160000160006101000a81548173ffffffffffffffffffffffffffffffffffffffff021916908373ffffffffffffffffffffffffffffffffffffffff16021790555060208201518160010190805190602001906112339291906120b0565b5060408201518160020190805190602001906112509291906120b0565b506060820151816003015560808201518160040160006101000a81548160ff02191690831515021790555060a08201518160040160016101000a81548160ff02191690831515021790555050505060063390806001815401808255809150509060018203906000526020600020016000909192909190916101000a81548173ffffffffffffffffffffffffffffffffffffffff021916908373ffffffffffffffffffffffffffffffffffffffff1602179055505060016002600082825401925050819055505050505050565b60008060009054906101000a900473ffffffffffffffffffffffffffffffffffffffff16905090565b6000809054906101000a900473ffffffffffffffffffffffffffffffffffffffff1681565b6000809054906101000a900473ffffffffffffffffffffffffffffffffffffffff1673ffffffffffffffffffffffffffffffffffffffff163373ffffffffffffffffffffffffffffffffffffffff16146113c357600080fd5b6001600360026101000a81548160ff021916908315150217905550565b6000600360019054906101000a900460ff16905090565b6005818154811061140457fe5b9060005260206000209060070201600091509050806000018054600181600116156101000203166002900480601f0160208091040260200160405190810160405280929190818152602001828054600181600116156101000203166002900480156114b05780601f10611485576101008083540402835291602001916114b0565b820191906000526020600020905b81548152906001019060200180831161149357829003601f168201915b505050505090806001018054600181600116156101000203166002900480601f01602080910402602001604051908101604052809291908181526020018280546001816001161561010002031660029004801561154e5780601f106115235761010080835404028352916020019161154e565b820191906000526020600020905b81548152906001019060200180831161153157829003601f168201915b505050505090806002018054600181600116156101000203166002900480601f0160208091040260200160405190810160405280929190818152602001828054600181600116156101000203166002900480156115ec5780601f106115c1576101008083540402835291602001916115ec565b820191906000526020600020905b8154815290600101906020018083116115cf57829003601f168201915b505050505090806003018054600181600116156101000203166002900480601f01602080910402602001604051908101604052809291908181526020018280546001816001161561010002031660029004801561168a5780601f1061165f5761010080835404028352916020019161168a565b820191906000526020600020905b81548152906001019060200180831161166d57829003601f168201915b5050505050908060040154908060050154908060060154905087565b60606008805480602002602001604051908101604052809291908181526020016000905b828210156118d657838290600052602060002090600502016040518060c00160405290816000820160009054906101000a900473ffffffffffffffffffffffffffffffffffffffff1673ffffffffffffffffffffffffffffffffffffffff1673ffffffffffffffffffffffffffffffffffffffff168152602001600182018054600181600116156101000203166002900480601f0160208091040260200160405190810160405280929190818152602001828054600181600116156101000203166002900480156117dc5780601f106117b1576101008083540402835291602001916117dc565b820191906000526020600020905b8154815290600101906020018083116117bf57829003601f168201915b50505050508152602001600282018054600181600116156101000203166002900480601f01602080910402602001604051908101604052809291908181526020018280546001816001161561010002031660029004801561187e5780601f106118535761010080835404028352916020019161187e565b820191906000526020600020905b81548152906001019060200180831161186157829003601f168201915b50505050508152602001600382015481526020016004820160009054906101000a900460ff161515151581526020016004820160019054906101000a900460ff161515151581525050815260200190600101906116ca565b50505050905090565b6000600360009054906101000a900460ff16905090565b6000809054906101000a900473ffffffffffffffffffffffffffffffffffffffff1673ffffffffffffffffffffffffffffffffffffffff163373ffffffffffffffffffffffffffffffffffffffff161461194f57600080fd5b611957612130565b6040518060e001604052808781526020018681526020018581526020018381526020016000815260200184815260200160015481525090508060046000600154815260200190815260200160002060008201518160000190805190602001906119c19291906120b0565b5060208201518160010190805190602001906119de9291906120b0565b5060408201518160020190805190602001906119fb9291906120b0565b506060820151816003019080519060200190611a189291906120b0565b506080820151816004015560a0820151816005015560c08201518160060155905050600581908060018154018082558091505090600182039060005260206000209060070201600090919290919091506000820151816000019080519060200190611a849291906120b0565b506020820151816001019080519060200190611aa19291906120b0565b506040820151816002019080519060200190611abe9291906120b0565b506060820151816003019080519060200190611adb9291906120b0565b506080820151816004015560a0820151816005015560c0820151816006015550505060018060008282540192505081905550505050505050565b60068181548110611b2257fe5b906000526020600020016000915054906101000a900473ffffffffffffffffffffffffffffffffffffffff1681565b60001515600760003373ffffffffffffffffffffffffffffffffffffffff1673ffffffffffffffffffffffffffffffffffffffff16815260200190815260200160002060040160009054906101000a900460ff16151514611bb157600080fd5b60011515600760003373ffffffffffffffffffffffffffffffffffffffff1673ffffffffffffffffffffffffffffffffffffffff16815260200190815260200160002060040160019054906101000a900460ff16151514611c1157600080fd5b60011515600360009054906101000a900460ff16151514611c3157600080fd5b60001515600360019054906101000a900460ff16151514611c5157600080fd5b600160046000838152602001908152602001600020600401600082825401925050819055506001600760003373ffffffffffffffffffffffffffffffffffffffff1673ffffffffffffffffffffffffffffffffffffffff16815260200190815260200160002060040160006101000a81548160ff02191690831515021790555050565b60606005805480602002602001604051908101604052809291908181526020016000905b82821015611fd057838290600052602060002090600702016040518060e0016040529081600082018054600181600116156101000203166002900480601f016020809104026020016040519081016040528092919081815260200182805460018160011615610100020316600290048015611db45780601f10611d8957610100808354040283529160200191611db4565b820191906000526020600020905b815481529060010190602001808311611d9757829003601f168201915b50505050508152602001600182018054600181600116156101000203166002900480601f016020809104026020016040519081016040528092919081815260200182805460018160011615610100020316600290048015611e565780601f10611e2b57610100808354040283529160200191611e56565b820191906000526020600020905b815481529060010190602001808311611e3957829003601f168201915b50505050508152602001600282018054600181600116156101000203166002900480601f016020809104026020016040519081016040528092919081815260200182805460018160011615610100020316600290048015611ef85780601f10611ecd57610100808354040283529160200191611ef8565b820191906000526020600020905b815481529060010190602001808311611edb57829003601f168201915b50505050508152602001600382018054600181600116156101000203166002900480601f016020809104026020016040519081016040528092919081815260200182805460018160011615610100020316600290048015611f9a5780601f10611f6f57610100808354040283529160200191611f9a565b820191906000526020600020905b815481529060010190602001808311611f7d57829003601f168201915b50505050508152602001600482015481526020016005820154815260200160068201548152505081526020019060010190611cf8565b50505050905090565b828054600181600116156101000203166002900490600052602060002090601f016020900481019282601f10612012578054855561204f565b8280016001018555821561204f57600052602060002091601f016020900482015b8281111561204e578254825591600101919060010190612033565b5b50905061205c919061216d565b5090565b6040518060c00160405280600073ffffffffffffffffffffffffffffffffffffffff1681526020016060815260200160608152602001600081526020016000151581526020016000151581525090565b828054600181600116156101000203166002900490600052602060002090601f016020900481019282601f106120f157805160ff191683800117855561211f565b8280016001018555821561211f579182015b8281111561211e578251825591602001919060010190612103565b5b50905061212c919061216d565b5090565b6040518060e00160405280606081526020016060815260200160608152602001606081526020016000815260200160008152602001600081525090565b61218f91905b8082111561218b576000816000905550600101612173565b5090565b90565b6000813590506121a181612aab565b92915050565b600082601f8301126121b857600080fd5b81356121cb6121c682612945565b612918565b915080825260208301602083018583830111156121e757600080fd5b6121f2838284612a58565b50505092915050565b60008135905061220a81612ac2565b92915050565b60006020828403121561222257600080fd5b600061223084828501612192565b91505092915050565b600080600080600060a0868803121561225157600080fd5b600086013567ffffffffffffffff81111561226b57600080fd5b612277888289016121a7565b955050602086013567ffffffffffffffff81111561229457600080fd5b6122a0888289016121a7565b945050604086013567ffffffffffffffff8111156122bd57600080fd5b6122c9888289016121a7565b93505060606122da888289016121fb565b925050608086013567ffffffffffffffff8111156122f757600080fd5b612303888289016121a7565b9150509295509295909350565b60008060006060848603121561232557600080fd5b600084013567ffffffffffffffff81111561233f57600080fd5b61234b868287016121a7565b935050602084013567ffffffffffffffff81111561236857600080fd5b612374868287016121a7565b9250506040612385868287016121fb565b9150509250925092565b6000602082840312156123a157600080fd5b60006123af848285016121fb565b91505092915050565b60006123c48383612578565b905092915050565b60006123d883836126b9565b905092915050565b6123e981612a10565b82525050565b6123f881612a10565b82525050565b600061240982612991565b61241381856129cc565b93508360208202850161242585612971565b8060005b85811015612461578484038952815161244285826123b8565b945061244d836129b2565b925060208a01995050600181019050612429565b50829750879550505050505092915050565b600061247e8261299c565b61248881856129dd565b93508360208202850161249a85612981565b8060005b858110156124d657848403895281516124b785826123cc565b94506124c2836129bf565b925060208a0199505060018101905061249e565b50829750879550505050505092915050565b6124f181612a22565b82525050565b61250081612a22565b82525050565b6000612511826129a7565b61251b81856129ee565b935061252b818560208601612a67565b61253481612a9a565b840191505092915050565b600061254a826129a7565b61255481856129ff565b9350612564818560208601612a67565b61256d81612a9a565b840191505092915050565b600060e08301600083015184820360008601526125958282612506565b915050602083015184820360208601526125af8282612506565b915050604083015184820360408601526125c98282612506565b915050606083015184820360608601526125e38282612506565b91505060808301516125f86080860182612749565b5060a083015161260b60a0860182612749565b5060c083015161261e60c0860182612749565b508091505092915050565b600060c08301600083015161264160008601826123e0565b50602083015184820360208601526126598282612506565b915050604083015184820360408601526126738282612506565b91505060608301516126886060860182612749565b50608083015161269b60808601826124e8565b5060a08301516126ae60a08601826124e8565b508091505092915050565b600060c0830160008301516126d160008601826123e0565b50602083015184820360208601526126e98282612506565b915050604083015184820360408601526127038282612506565b91505060608301516127186060860182612749565b50608083015161272b60808601826124e8565b5060a083015161273e60a08601826124e8565b508091505092915050565b61275281612a4e565b82525050565b61276181612a4e565b82525050565b600060208201905061277c60008301846123ef565b92915050565b600060c08201905061279760008301896123ef565b81810360208301526127a9818861253f565b905081810360408301526127bd818761253f565b90506127cc6060830186612758565b6127d960808301856124f7565b6127e660a08301846124f7565b979650505050505050565b6000602082019050818103600083015261280b81846123fe565b905092915050565b6000602082019050818103600083015261282d8184612473565b905092915050565b600060208201905061284a60008301846124f7565b92915050565b600060e082019050818103600083015261286a818a61253f565b9050818103602083015261287e818961253f565b90508181036040830152612892818861253f565b905081810360608301526128a6818761253f565b90506128b56080830186612758565b6128c260a0830185612758565b6128cf60c0830184612758565b98975050505050505050565b600060208201905081810360008301526128f58184612629565b905092915050565b60006020820190506129126000830184612758565b92915050565b6000604051905081810181811067ffffffffffffffff8211171561293b57600080fd5b8060405250919050565b600067ffffffffffffffff82111561295c57600080fd5b601f19601f8301169050602081019050919050565b6000819050602082019050919050565b6000819050602082019050919050565b600081519050919050565b600081519050919050565b600081519050919050565b6000602082019050919050565b6000602082019050919050565b600082825260208201905092915050565b600082825260208201905092915050565b600082825260208201905092915050565b600082825260208201905092915050565b6000612a1b82612a2e565b9050919050565b60008115159050919050565b600073ffffffffffffffffffffffffffffffffffffffff82169050919050565b6000819050919050565b82818337600083830152505050565b60005b83811015612a85578082015181840152602081019050612a6a565b83811115612a94576000848401525b50505050565b6000601f19601f8301169050919050565b612ab481612a10565b8114612abf57600080fd5b50565b612acb81612a4e565b8114612ad657600080fd5b5056fea365627a7a72315820b56ae8452b98e65b5d97905b2bba3f35439ce778b30afc57f73d91525b15876e6c6578706572696d656e74616cf564736f6c63430005100040",
  "source": "// SPDX-License-Identifier: MIT\npragma solidity >=0.4.21 <0.7.0;\npragma experimental ABIEncoderV2;\ncontract Voting{\n\n    address public owner;\n    uint candidateCount;\n    uint voterCount;\n    bool start;\n    bool end;\n    bool resultDeclared;\n    constructor() public {\n        owner = msg.sender;\n        candidateCount = 0;\n        voterCount =0;\n        start = false;\n        end = false;\n        resultDeclared = false;\n        \n    }\n    function getOwner() public view returns (address) {\n        return owner;\n    }\n    modifier onlyAdmin(){\n        require(msg.sender == owner);\n        _;\n    }\n\n    struct Candidate{\n        string name;\n        string party;\n        string manifesto;\n        string imgHash;\n        uint voteCount;\n        uint constituency;\n        uint candidateId;\n    }\n    mapping(uint => Candidate) public candidateDetails;\n    Candidate[]  public candidateList;\n    function addCandidate(string memory _name, string memory  _party, string memory  _manifesto, uint _constituency,string memory _imgHash)  public onlyAdmin {\n        Candidate memory newCandidate = Candidate({name:_name, party:_party, manifesto:_manifesto, voteCount:0, constituency:_constituency, candidateId : candidateCount, imgHash:_imgHash});\n        candidateDetails[candidateCount] = newCandidate;\n        candidateList.push(newCandidate);\n        candidateCount+=1;\n\n    }\n    function getCandidateNumber() public view  returns(uint){\n        return candidateCount;\n    }\n    function getCandidateList() public view returns(Candidate [] memory){\n        return candidateList;\n    }\n\n    struct Voter{\n        address voterAddress;\n        string name;\n        string votingCardNumber;\n        uint constituency;\n        bool hasVoted;\n        bool hasVerified;\n\n    }\n\n    address[] public voters;\n    mapping(address => Voter) public voterDetails;\n    Voter[] public voterList;\n    function requestVoter(string memory  _name, string memory  _votingCardNumber, uint  _constituency) public {\n    \n        address _voterAddress = msg.sender;\n        Voter memory newVoter = Voter({voterAddress:_voterAddress, name:_name, votingCardNumber:_votingCardNumber, constituency: _constituency, hasVoted : false, hasVerified: false});\n        voterDetails[msg.sender] = newVoter;\n        voterList.push(newVoter);\n        voters.push(msg.sender);\n        voterCount +=1; \n    }\n    function getVoterList() public view returns(Voter [] memory){\n    return voterList;\n      \n    }\n    function getVoterCount() public view returns(uint) {\n        return voterCount;\n    } \n    function getvoter(address _address) public view returns(Voter memory){\n        \n        return voterDetails[_address];\n    }\n    function verifyVoter(address _address) public onlyAdmin{\n        voterDetails[_address].hasVerified = true;\n        \n        for(uint i = 0 ; i <voterList.length ; i++)\n        {\n            Voter storage cv = voterList[i];\n            if(cv.voterAddress == _address)\n            {\n                cv.hasVerified= true;\n                voterList[i]=cv;\n                \n            } \n        }\n    } \n\n    function Vote(uint _candidateId) public {\n        require(voterDetails[msg.sender].hasVoted == false);\n        require(voterDetails[msg.sender].hasVerified == true);\n        require(start == true);\n        require(end == false);\n        candidateDetails[_candidateId].voteCount += 1;\n        voterDetails[msg.sender].hasVoted = true;\n\n\n    }\n    function startElection()public onlyAdmin  {\n        start =true;\n        end  = false;\n         \n    }\n    function endElection() public onlyAdmin {\n        start = false;\n        end = true;\n     }\n\n    function getStart() public view returns(bool){\n    return start;\n    }\n    function getEnd() public view returns(bool){\n        return end;\n    }\n\n    function getResultDeclared() public view returns(bool){\n        return resultDeclared;\n    }\n    function setResultDeclared() public onlyAdmin {\n        resultDeclared = true;\n        \n    }\n \n\n}",
  "sourcePath": "/home/rajat/Documents/blockchain/my/pet-shop/contracts/Voting.sol",
  "compiler": {
    "name": "solc",
    "version": "0.5.16+commit.9c3226ce.Emscripten.clang"
  },
  "schemaVersion": "3.3.4",
  "updatedAt": "2021-04-13T16:20:33.493Z",
  "networkType": "ethereum",
  "devdoc": {
    "methods": {}
  },
  "userdoc": {
    "methods": {}
  }
}